{"abi":[{"type":"constructor","inputs":[],"stateMutability":"nonpayable"},{"type":"receive","stateMutability":"payable"},{"type":"function","name":"deposit","inputs":[],"outputs":[],"stateMutability":"payable"},{"type":"function","name":"getBalance","inputs":[{"name":"user","type":"address","internalType":"address"}],"outputs":[{"name":"","type":"uint256","internalType":"uint256"}],"stateMutability":"view"},{"type":"function","name":"getCurrentOwner","inputs":[],"outputs":[{"name":"","type":"address","internalType":"address"}],"stateMutability":"view"},{"type":"function","name":"getTotalBalance","inputs":[],"outputs":[{"name":"","type":"uint256","internalType":"uint256"}],"stateMutability":"view"},{"type":"function","name":"transferContractOwnership","inputs":[{"name":"newOwner","type":"address","internalType":"address"}],"outputs":[],"stateMutability":"nonpayable"},{"type":"function","name":"transferInternal","inputs":[{"name":"receiver","type":"address","internalType":"address"},{"name":"amount","type":"uint256","internalType":"uint256"}],"outputs":[],"stateMutability":"nonpayable"},{"type":"function","name":"transferTo","inputs":[{"name":"receiver","type":"address","internalType":"address"},{"name":"amount","type":"uint256","internalType":"uint256"}],"outputs":[],"stateMutability":"nonpayable"},{"type":"function","name":"withdraw","inputs":[{"name":"amount","type":"uint256","internalType":"uint256"}],"outputs":[],"stateMutability":"nonpayable"},{"type":"event","name":"Deposit","inputs":[{"name":"user","type":"address","indexed":true,"internalType":"address"},{"name":"amount","type":"uint256","indexed":false,"internalType":"uint256"}],"anonymous":false},{"type":"event","name":"TransferContractOwnership","inputs":[{"name":"oldOwner","type":"address","indexed":true,"internalType":"address"},{"name":"newOwner","type":"address","indexed":true,"internalType":"address"}],"anonymous":false},{"type":"event","name":"TransferInternal","inputs":[{"name":"sender","type":"address","indexed":true,"internalType":"address"},{"name":"receiver","type":"address","indexed":true,"internalType":"address"},{"name":"amount","type":"uint256","indexed":false,"internalType":"uint256"}],"anonymous":false},{"type":"event","name":"TransferTo","inputs":[{"name":"sender","type":"address","indexed":true,"internalType":"address"},{"name":"receiver","type":"address","indexed":true,"internalType":"address"},{"name":"amount","type":"uint256","indexed":false,"internalType":"uint256"}],"anonymous":false},{"type":"event","name":"Withdraw","inputs":[{"name":"user","type":"address","indexed":true,"internalType":"address"},{"name":"amount","type":"uint256","indexed":false,"internalType":"uint256"}],"anonymous":false},{"type":"error","name":"Bank__InsufficientBalance","inputs":[{"name":"available","type":"uint256","internalType":"uint256"},{"name":"required","type":"uint256","internalType":"uint256"}]},{"type":"error","name":"Bank__InvalidAddress","inputs":[{"name":"receiver","type":"address","internalType":"address"}]},{"type":"error","name":"Bank__TransferFailed","inputs":[]},{"type":"error","name":"Bank__UnauthorizedAccount","inputs":[{"name":"nonOwner","type":"address","internalType":"address"}]},{"type":"error","name":"Bank__UserCantDepositZeroAmount","inputs":[]},{"type":"error","name":"Bank__UserCantWithdrawZeroAmount","inputs":[]}],"bytecode":{"object":"0x608060405234801561000f575f5ffd5b505f60015f9054906101000a900473ffffffffffffffffffffffffffffffffffffffff1690503360015f6101000a81548173ffffffffffffffffffffffffffffffffffffffff021916908373ffffffffffffffffffffffffffffffffffffffff16021790555060015f9054906101000a900473ffffffffffffffffffffffffffffffffffffffff1673ffffffffffffffffffffffffffffffffffffffff168173ffffffffffffffffffffffffffffffffffffffff167fcf46bd245e8c9192874bbb1cd18f3cfe24d39e59d79dec85790a459e81f99a8b60405160405180910390a350610f4c806100fe5f395ff3fe60806040526004361061007e575f3560e01c8063a18a186b1161004d578063a18a186b14610133578063a843c51f1461015d578063d0e30db014610185578063f8b2cb4f1461018f5761008d565b806312b58349146100915780632ccb1b30146100bb5780632e1a7d4d146100e3578063541f631a1461010b5761008d565b3661008d5761008b6101cb565b005b5f5ffd5b34801561009c575f5ffd5b506100a56102c8565b6040516100b29190610cbe565b60405180910390f35b3480156100c6575f5ffd5b506100e160048036038101906100dc9190610d5f565b610362565b005b3480156100ee575f5ffd5b5061010960048036038101906101049190610d9d565b610611565b005b348015610116575f5ffd5b50610131600480360381019061012c9190610d5f565b610836565b005b34801561013e575f5ffd5b50610147610a75565b6040516101549190610dd7565b60405180910390f35b348015610168575f5ffd5b50610183600480360381019061017e9190610df0565b610a9d565b005b61018d6101cb565b005b34801561019a575f5ffd5b506101b560048036038101906101b09190610df0565b610c61565b6040516101c29190610cbe565b60405180910390f35b5f3390505f3490505f810361020c576040517f981b446600000000000000000000000000000000000000000000000000000000815260040160405180910390fd5b805f5f8473ffffffffffffffffffffffffffffffffffffffff1673ffffffffffffffffffffffffffffffffffffffff1681526020019081526020015f205f8282546102579190610e48565b925050819055508060025f82825461026f9190610e48565b925050819055508173ffffffffffffffffffffffffffffffffffffffff167fe1fffcc4923d04b559f4d29a8bfc6cda04eb5b0d3c460751c2402c5c5cc9109c826040516102bc9190610cbe565b60405180910390a25050565b5f60015f9054906101000a900473ffffffffffffffffffffffffffffffffffffffff1673ffffffffffffffffffffffffffffffffffffffff163373ffffffffffffffffffffffffffffffffffffffff161461035a57336040517f758f73a60000000000000000000000000000000000000000000000000000000081526004016103519190610dd7565b60405180910390fd5b600254905090565b815f73ffffffffffffffffffffffffffffffffffffffff168173ffffffffffffffffffffffffffffffffffffffff16036103d357806040517fa98ac9e50000000000000000000000000000000000000000000000000000000081526004016103ca9190610dd7565b60405180910390fd5b5f3390505f5f5f8373ffffffffffffffffffffffffffffffffffffffff1673ffffffffffffffffffffffffffffffffffffffff1681526020019081526020015f205490505f8403610450576040517f97ac53ef00000000000000000000000000000000000000000000000000000000815260040160405180910390fd5b8084118061045d57505f81145b156104a15780846040517f4ec98717000000000000000000000000000000000000000000000000000000008152600401610498929190610e7b565b60405180910390fd5b83816104ad9190610ea2565b5f5f8473ffffffffffffffffffffffffffffffffffffffff1673ffffffffffffffffffffffffffffffffffffffff1681526020019081526020015f20819055508360025f8282546104fe9190610ea2565b925050819055505f8573ffffffffffffffffffffffffffffffffffffffff168560405161052a90610f02565b5f6040518083038185875af1925050503d805f8114610564576040519150601f19603f3d011682016040523d82523d5f602084013e610569565b606091505b50509050806105a4576040517f4c71cfe500000000000000000000000000000000000000000000000000000000815260040160405180910390fd5b8573ffffffffffffffffffffffffffffffffffffffff168373ffffffffffffffffffffffffffffffffffffffff167fd70645d60a6465bb7b8c93d33a3bd06236ce6a6b1ea6111401bb4724dbaaefef876040516106019190610cbe565b60405180910390a3505050505050565b5f3390505f5f5f8373ffffffffffffffffffffffffffffffffffffffff1673ffffffffffffffffffffffffffffffffffffffff1681526020019081526020015f205490505f830361068e576040517f97ac53ef00000000000000000000000000000000000000000000000000000000815260040160405180910390fd5b8083118061069b57505f81145b156106df5780836040517f4ec987170000000000000000000000000000000000000000000000000000000081526004016106d6929190610e7b565b60405180910390fd5b82816106eb9190610ea2565b5f5f8473ffffffffffffffffffffffffffffffffffffffff1673ffffffffffffffffffffffffffffffffffffffff1681526020019081526020015f20819055508260025f82825461073c9190610ea2565b925050819055505f3373ffffffffffffffffffffffffffffffffffffffff168460405161076890610f02565b5f6040518083038185875af1925050503d805f81146107a2576040519150601f19603f3d011682016040523d82523d5f602084013e6107a7565b606091505b50509050806107e2576040517f4c71cfe500000000000000000000000000000000000000000000000000000000815260040160405180910390fd5b3373ffffffffffffffffffffffffffffffffffffffff167f884edad9ce6fa2440d8a54cc123490eb96d2768479d49ff9c7366125a9424364856040516108289190610cbe565b60405180910390a250505050565b815f73ffffffffffffffffffffffffffffffffffffffff168173ffffffffffffffffffffffffffffffffffffffff16036108a757806040517fa98ac9e500000000000000000000000000000000000000000000000000000000815260040161089e9190610dd7565b60405180910390fd5b5f3390505f5f5f3373ffffffffffffffffffffffffffffffffffffffff1673ffffffffffffffffffffffffffffffffffffffff1681526020019081526020015f205490505f8403610924576040517f97ac53ef00000000000000000000000000000000000000000000000000000000815260040160405180910390fd5b8084111561096b5780846040517f4ec98717000000000000000000000000000000000000000000000000000000008152600401610962929190610e7b565b60405180910390fd5b83816109779190610ea2565b5f5f8473ffffffffffffffffffffffffffffffffffffffff1673ffffffffffffffffffffffffffffffffffffffff1681526020019081526020015f2081905550835f5f8773ffffffffffffffffffffffffffffffffffffffff1673ffffffffffffffffffffffffffffffffffffffff1681526020019081526020015f205f828254610a029190610e48565b925050819055508473ffffffffffffffffffffffffffffffffffffffff168273ffffffffffffffffffffffffffffffffffffffff167f2eaf0105ce634980cd36a1b268deebe6ebc3d5e0554e514b32e8d02169df91a786604051610a669190610cbe565b60405180910390a35050505050565b5f60015f9054906101000a900473ffffffffffffffffffffffffffffffffffffffff16905090565b60015f9054906101000a900473ffffffffffffffffffffffffffffffffffffffff1673ffffffffffffffffffffffffffffffffffffffff163373ffffffffffffffffffffffffffffffffffffffff1614610b2e57336040517f758f73a6000000000000000000000000000000000000000000000000000000008152600401610b259190610dd7565b60405180910390fd5b5f60015f9054906101000a900473ffffffffffffffffffffffffffffffffffffffff1690505f73ffffffffffffffffffffffffffffffffffffffff168273ffffffffffffffffffffffffffffffffffffffff1603610bc357816040517fa98ac9e5000000000000000000000000000000000000000000000000000000008152600401610bba9190610dd7565b60405180910390fd5b8160015f6101000a81548173ffffffffffffffffffffffffffffffffffffffff021916908373ffffffffffffffffffffffffffffffffffffffff1602179055508173ffffffffffffffffffffffffffffffffffffffff168173ffffffffffffffffffffffffffffffffffffffff167fcf46bd245e8c9192874bbb1cd18f3cfe24d39e59d79dec85790a459e81f99a8b60405160405180910390a35050565b5f5f5f8373ffffffffffffffffffffffffffffffffffffffff1673ffffffffffffffffffffffffffffffffffffffff1681526020019081526020015f20549050919050565b5f819050919050565b610cb881610ca6565b82525050565b5f602082019050610cd15f830184610caf565b92915050565b5f5ffd5b5f73ffffffffffffffffffffffffffffffffffffffff82169050919050565b5f610d0482610cdb565b9050919050565b610d1481610cfa565b8114610d1e575f5ffd5b50565b5f81359050610d2f81610d0b565b92915050565b610d3e81610ca6565b8114610d48575f5ffd5b50565b5f81359050610d5981610d35565b92915050565b5f5f60408385031215610d7557610d74610cd7565b5b5f610d8285828601610d21565b9250506020610d9385828601610d4b565b9150509250929050565b5f60208284031215610db257610db1610cd7565b5b5f610dbf84828501610d4b565b91505092915050565b610dd181610cfa565b82525050565b5f602082019050610dea5f830184610dc8565b92915050565b5f60208284031215610e0557610e04610cd7565b5b5f610e1284828501610d21565b91505092915050565b7f4e487b71000000000000000000000000000000000000000000000000000000005f52601160045260245ffd5b5f610e5282610ca6565b9150610e5d83610ca6565b9250828201905080821115610e7557610e74610e1b565b5b92915050565b5f604082019050610e8e5f830185610caf565b610e9b6020830184610caf565b9392505050565b5f610eac82610ca6565b9150610eb783610ca6565b9250828203905081811115610ecf57610ece610e1b565b5b92915050565b5f81905092915050565b50565b5f610eed5f83610ed5565b9150610ef882610edf565b5f82019050919050565b5f610f0c82610ee2565b915081905091905056fea2646970667358221220ed41ed921027042cf67ec6bea4073daf96bdf67e98ef94fbf57085042feaa07964736f6c634300081e0033","linkReferences":{}},"methodIdentifiers":{"deposit()":"d0e30db0","getBalance(address)":"f8b2cb4f","getCurrentOwner()":"a18a186b","getTotalBalance()":"12b58349","transferContractOwnership(address)":"a843c51f","transferInternal(address,uint256)":"541f631a","transferTo(address,uint256)":"2ccb1b30","withdraw(uint256)":"2e1a7d4d"},"id":0}