{"abi":[{"type":"constructor","inputs":[{"name":"_name","type":"string","internalType":"string"},{"name":"_symbol","type":"string","internalType":"string"},{"name":"_initialSupply","type":"uint256","internalType":"uint256"}],"stateMutability":"nonpayable"},{"type":"function","name":"approve","inputs":[{"name":"spender","type":"address","internalType":"address"},{"name":"amount","type":"uint256","internalType":"uint256"}],"outputs":[{"name":"success","type":"bool","internalType":"bool"}],"stateMutability":"nonpayable"},{"type":"function","name":"balanceOf","inputs":[{"name":"user","type":"address","internalType":"address"}],"outputs":[{"name":"","type":"uint256","internalType":"uint256"}],"stateMutability":"view"},{"type":"function","name":"burn","inputs":[{"name":"amount","type":"uint256","internalType":"uint256"}],"outputs":[],"stateMutability":"nonpayable"},{"type":"function","name":"decimals","inputs":[],"outputs":[{"name":"","type":"uint8","internalType":"uint8"}],"stateMutability":"pure"},{"type":"function","name":"mint","inputs":[{"name":"receiver","type":"address","internalType":"address"},{"name":"amount","type":"uint256","internalType":"uint256"}],"outputs":[],"stateMutability":"nonpayable"},{"type":"function","name":"name","inputs":[],"outputs":[{"name":"","type":"string","internalType":"string"}],"stateMutability":"view"},{"type":"function","name":"setAllowance","inputs":[{"name":"owner","type":"address","internalType":"address"},{"name":"spender","type":"address","internalType":"address"}],"outputs":[{"name":"","type":"uint256","internalType":"uint256"}],"stateMutability":"view"},{"type":"function","name":"symbol","inputs":[],"outputs":[{"name":"","type":"string","internalType":"string"}],"stateMutability":"view"},{"type":"function","name":"totalSupply","inputs":[],"outputs":[{"name":"","type":"uint256","internalType":"uint256"}],"stateMutability":"view"},{"type":"function","name":"transfer","inputs":[{"name":"receiver","type":"address","internalType":"address"},{"name":"amount","type":"uint256","internalType":"uint256"}],"outputs":[{"name":"","type":"bool","internalType":"bool"}],"stateMutability":"nonpayable"},{"type":"function","name":"transferFrom","inputs":[{"name":"owner","type":"address","internalType":"address"},{"name":"spender","type":"address","internalType":"address"},{"name":"amount","type":"uint256","internalType":"uint256"}],"outputs":[{"name":"","type":"bool","internalType":"bool"}],"stateMutability":"nonpayable"},{"type":"event","name":"Approval","inputs":[{"name":"owner","type":"address","indexed":true,"internalType":"address"},{"name":"spender","type":"address","indexed":true,"internalType":"address"},{"name":"amount","type":"uint256","indexed":true,"internalType":"uint256"}],"anonymous":false},{"type":"event","name":"Burn","inputs":[{"name":"user","type":"address","indexed":true,"internalType":"address"},{"name":"amount","type":"uint256","indexed":false,"internalType":"uint256"}],"anonymous":false},{"type":"event","name":"Mint","inputs":[{"name":"receiver","type":"address","indexed":true,"internalType":"address"},{"name":"amount","type":"uint256","indexed":false,"internalType":"uint256"}],"anonymous":false},{"type":"event","name":"Transfer","inputs":[{"name":"sender","type":"address","indexed":true,"internalType":"address"},{"name":"receiver","type":"address","indexed":true,"internalType":"address"},{"name":"amount","type":"uint256","indexed":false,"internalType":"uint256"}],"anonymous":false},{"type":"error","name":"SendSomeToken__InvalidAddress","inputs":[{"name":"user","type":"address","internalType":"address"}]},{"type":"error","name":"SendSomeToken__NotAllowedZeroAmount","inputs":[]},{"type":"error","name":"SendSomeToken__UnauthorizedAccount","inputs":[{"name":"nonOwner","type":"address","internalType":"address"}]}],"bytecode":{"object":"0x608060405234801561000f575f5ffd5b506040516116003803806116008339818101604052810190610031919061025c565b6003545f810361006d576040517ff21adbaf00000000000000000000000000000000000000000000000000000000815260040160405180910390fd5b335f5f6101000a81548173ffffffffffffffffffffffffffffffffffffffff021916908373ffffffffffffffffffffffffffffffffffffffff16021790555083600190816100bb91906104eb565b5082600290816100cb91906104eb565b5081600381905550505050506105ba565b5f604051905090565b5f5ffd5b5f5ffd5b5f5ffd5b5f5ffd5b5f601f19601f8301169050919050565b7f4e487b71000000000000000000000000000000000000000000000000000000005f52604160045260245ffd5b61013b826100f5565b810181811067ffffffffffffffff8211171561015a57610159610105565b5b80604052505050565b5f61016c6100dc565b90506101788282610132565b919050565b5f67ffffffffffffffff82111561019757610196610105565b5b6101a0826100f5565b9050602081019050919050565b8281835e5f83830152505050565b5f6101cd6101c88461017d565b610163565b9050828152602081018484840111156101e9576101e86100f1565b5b6101f48482856101ad565b509392505050565b5f82601f8301126102105761020f6100ed565b5b81516102208482602086016101bb565b91505092915050565b5f819050919050565b61023b81610229565b8114610245575f5ffd5b50565b5f8151905061025681610232565b92915050565b5f5f5f60608486031215610273576102726100e5565b5b5f84015167ffffffffffffffff8111156102905761028f6100e9565b5b61029c868287016101fc565b935050602084015167ffffffffffffffff8111156102bd576102bc6100e9565b5b6102c9868287016101fc565b92505060406102da86828701610248565b9150509250925092565b5f81519050919050565b7f4e487b71000000000000000000000000000000000000000000000000000000005f52602260045260245ffd5b5f600282049050600182168061033257607f821691505b602082108103610345576103446102ee565b5b50919050565b5f819050815f5260205f209050919050565b5f6020601f8301049050919050565b5f82821b905092915050565b5f600883026103a77fffffffffffffffffffffffffffffffffffffffffffffffffffffffffffffffff8261036c565b6103b1868361036c565b95508019841693508086168417925050509392505050565b5f819050919050565b5f6103ec6103e76103e284610229565b6103c9565b610229565b9050919050565b5f819050919050565b610405836103d2565b610419610411826103f3565b848454610378565b825550505050565b5f5f905090565b610430610421565b61043b8184846103fc565b505050565b5b8181101561045e576104535f82610428565b600181019050610441565b5050565b601f8211156104a3576104748161034b565b61047d8461035d565b8101602085101561048c578190505b6104a06104988561035d565b830182610440565b50505b505050565b5f82821c905092915050565b5f6104c35f19846008026104a8565b1980831691505092915050565b5f6104db83836104b4565b9150826002028217905092915050565b6104f4826102e4565b67ffffffffffffffff81111561050d5761050c610105565b5b610517825461031b565b610522828285610462565b5f60209050601f831160018114610553575f8415610541578287015190505b61054b85826104d0565b8655506105b2565b601f1984166105618661034b565b5f5b8281101561058857848901518255600182019150602085019450602081019050610563565b868310156105a557848901516105a1601f8916826104b4565b8355505b6001600288020188555050505b505050505050565b611039806105c75f395ff3fe608060405234801561000f575f5ffd5b50600436106100a7575f3560e01c8063313ce5671161006f578063313ce5671461017757806340c10f191461019557806342966c68146101b157806370a08231146101cd57806395d89b41146101fd578063a9059cbb1461021b576100a7565b806306fdde03146100ab578063095ea7b3146100c957806318160ddd146100f95780631cedc2031461011757806323b872dd14610147575b5f5ffd5b6100b361024b565b6040516100c09190610c89565b60405180910390f35b6100e360048036038101906100de9190610d3a565b6102db565b6040516100f09190610d92565b60405180910390f35b6101016103be565b60405161010e9190610dba565b60405180910390f35b610131600480360381019061012c9190610dd3565b6103c7565b60405161013e9190610dba565b60405180910390f35b610161600480360381019061015c9190610e11565b610449565b60405161016e9190610d92565b60405180910390f35b61017f61067d565b60405161018c9190610e7c565b60405180910390f35b6101af60048036038101906101aa9190610d3a565b610685565b005b6101cb60048036038101906101c69190610e95565b61087f565b005b6101e760048036038101906101e29190610ec0565b61097b565b6040516101f49190610dba565b60405180910390f35b6102056109c1565b6040516102129190610c89565b60405180910390f35b61023560048036038101906102309190610d3a565b610a51565b6040516102429190610d92565b60405180910390f35b60606001805461025a90610f18565b80601f016020809104026020016040519081016040528092919081815260200182805461028690610f18565b80156102d15780601f106102a8576101008083540402835291602001916102d1565b820191905f5260205f20905b8154815290600101906020018083116102b457829003601f168201915b5050505050905090565b5f8160065f3373ffffffffffffffffffffffffffffffffffffffff1673ffffffffffffffffffffffffffffffffffffffff1681526020019081526020015f205f8573ffffffffffffffffffffffffffffffffffffffff1673ffffffffffffffffffffffffffffffffffffffff1681526020019081526020015f2081905550818373ffffffffffffffffffffffffffffffffffffffff163373ffffffffffffffffffffffffffffffffffffffff167f8c5be1e5ebec7d5bd14f71427d1e84f3dd0314c0f7b2291e5b200ac8c7c3b92560405160405180910390a46001905092915050565b5f600454905090565b5f60065f8473ffffffffffffffffffffffffffffffffffffffff1673ffffffffffffffffffffffffffffffffffffffff1681526020019081526020015f205f8373ffffffffffffffffffffffffffffffffffffffff1673ffffffffffffffffffffffffffffffffffffffff1681526020019081526020015f2054905092915050565b5f825f73ffffffffffffffffffffffffffffffffffffffff168173ffffffffffffffffffffffffffffffffffffffff16036104bb57806040517fdfcb70620000000000000000000000000000000000000000000000000000000081526004016104b29190610f57565b60405180910390fd5b825f81036104f5576040517ff21adbaf00000000000000000000000000000000000000000000000000000000815260040160405180910390fd5b8573ffffffffffffffffffffffffffffffffffffffff163373ffffffffffffffffffffffffffffffffffffffff161461056557856040517f715749b300000000000000000000000000000000000000000000000000000000815260040161055c9190610f57565b60405180910390fd5b8360055f8873ffffffffffffffffffffffffffffffffffffffff1673ffffffffffffffffffffffffffffffffffffffff1681526020019081526020015f205f8282546105b19190610f9d565b925050819055508360055f8773ffffffffffffffffffffffffffffffffffffffff1673ffffffffffffffffffffffffffffffffffffffff1681526020019081526020015f205f8282546106049190610fd0565b925050819055508473ffffffffffffffffffffffffffffffffffffffff168673ffffffffffffffffffffffffffffffffffffffff167fddf252ad1be2c89b69c2b068fc378daa952ba7f163c4a11628f55a4df523b3ef866040516106689190610dba565b60405180910390a36001925050509392505050565b5f6008905090565b5f5f9054906101000a900473ffffffffffffffffffffffffffffffffffffffff1673ffffffffffffffffffffffffffffffffffffffff163373ffffffffffffffffffffffffffffffffffffffff161461071557336040517f715749b300000000000000000000000000000000000000000000000000000000815260040161070c9190610f57565b60405180910390fd5b815f73ffffffffffffffffffffffffffffffffffffffff168173ffffffffffffffffffffffffffffffffffffffff160361078657806040517fdfcb706200000000000000000000000000000000000000000000000000000000815260040161077d9190610f57565b60405180910390fd5b815f81036107c0576040517ff21adbaf00000000000000000000000000000000000000000000000000000000815260040160405180910390fd5b8260055f8673ffffffffffffffffffffffffffffffffffffffff1673ffffffffffffffffffffffffffffffffffffffff1681526020019081526020015f205f82825461080c9190610fd0565b925050819055508260045f8282546108249190610fd0565b925050819055508373ffffffffffffffffffffffffffffffffffffffff167f0f6798a560793a54c3bcfe86a93cde1e73087d944c0ea20544137d4121396885846040516108719190610dba565b60405180910390a250505050565b805f81036108b9576040517ff21adbaf00000000000000000000000000000000000000000000000000000000815260040160405180910390fd5b5f3390508260055f8373ffffffffffffffffffffffffffffffffffffffff1673ffffffffffffffffffffffffffffffffffffffff1681526020019081526020015f205f8282546109099190610f9d565b925050819055508260045f8282546109219190610f9d565b925050819055508073ffffffffffffffffffffffffffffffffffffffff167fcc16f5dbb4873280815c1ee09dbd06736cffcc184412cf7a71a0fdb75d397ca58460405161096e9190610dba565b60405180910390a2505050565b5f60055f8373ffffffffffffffffffffffffffffffffffffffff1673ffffffffffffffffffffffffffffffffffffffff1681526020019081526020015f20549050919050565b6060600280546109d090610f18565b80601f01602080910402602001604051908101604052809291908181526020018280546109fc90610f18565b8015610a475780601f10610a1e57610100808354040283529160200191610a47565b820191905f5260205f20905b815481529060010190602001808311610a2a57829003601f168201915b5050505050905090565b5f825f73ffffffffffffffffffffffffffffffffffffffff168173ffffffffffffffffffffffffffffffffffffffff1603610ac357806040517fdfcb7062000000000000000000000000000000000000000000000000000000008152600401610aba9190610f57565b60405180910390fd5b825f8103610afd576040517ff21adbaf00000000000000000000000000000000000000000000000000000000815260040160405180910390fd5b5f3390508460055f8373ffffffffffffffffffffffffffffffffffffffff1673ffffffffffffffffffffffffffffffffffffffff1681526020019081526020015f205f828254610b4d9190610f9d565b925050819055508460055f8873ffffffffffffffffffffffffffffffffffffffff1673ffffffffffffffffffffffffffffffffffffffff1681526020019081526020015f205f828254610ba09190610fd0565b925050819055508573ffffffffffffffffffffffffffffffffffffffff168173ffffffffffffffffffffffffffffffffffffffff167fddf252ad1be2c89b69c2b068fc378daa952ba7f163c4a11628f55a4df523b3ef87604051610c049190610dba565b60405180910390a36001935050505092915050565b5f81519050919050565b5f82825260208201905092915050565b8281835e5f83830152505050565b5f601f19601f8301169050919050565b5f610c5b82610c19565b610c658185610c23565b9350610c75818560208601610c33565b610c7e81610c41565b840191505092915050565b5f6020820190508181035f830152610ca18184610c51565b905092915050565b5f5ffd5b5f73ffffffffffffffffffffffffffffffffffffffff82169050919050565b5f610cd682610cad565b9050919050565b610ce681610ccc565b8114610cf0575f5ffd5b50565b5f81359050610d0181610cdd565b92915050565b5f819050919050565b610d1981610d07565b8114610d23575f5ffd5b50565b5f81359050610d3481610d10565b92915050565b5f5f60408385031215610d5057610d4f610ca9565b5b5f610d5d85828601610cf3565b9250506020610d6e85828601610d26565b9150509250929050565b5f8115159050919050565b610d8c81610d78565b82525050565b5f602082019050610da55f830184610d83565b92915050565b610db481610d07565b82525050565b5f602082019050610dcd5f830184610dab565b92915050565b5f5f60408385031215610de957610de8610ca9565b5b5f610df685828601610cf3565b9250506020610e0785828601610cf3565b9150509250929050565b5f5f5f60608486031215610e2857610e27610ca9565b5b5f610e3586828701610cf3565b9350506020610e4686828701610cf3565b9250506040610e5786828701610d26565b9150509250925092565b5f60ff82169050919050565b610e7681610e61565b82525050565b5f602082019050610e8f5f830184610e6d565b92915050565b5f60208284031215610eaa57610ea9610ca9565b5b5f610eb784828501610d26565b91505092915050565b5f60208284031215610ed557610ed4610ca9565b5b5f610ee284828501610cf3565b91505092915050565b7f4e487b71000000000000000000000000000000000000000000000000000000005f52602260045260245ffd5b5f6002820490506001821680610f2f57607f821691505b602082108103610f4257610f41610eeb565b5b50919050565b610f5181610ccc565b82525050565b5f602082019050610f6a5f830184610f48565b92915050565b7f4e487b71000000000000000000000000000000000000000000000000000000005f52601160045260245ffd5b5f610fa782610d07565b9150610fb283610d07565b9250828203905081811115610fca57610fc9610f70565b5b92915050565b5f610fda82610d07565b9150610fe583610d07565b9250828201905080821115610ffd57610ffc610f70565b5b9291505056fea2646970667358221220b21cc283c06066b4e324fd1d1ca8d64f1e8a58858cab918b87da646668900b7d64736f6c634300081e0033","linkReferences":{}},"methodIdentifiers":{"approve(address,uint256)":"095ea7b3","balanceOf(address)":"70a08231","burn(uint256)":"42966c68","decimals()":"313ce567","mint(address,uint256)":"40c10f19","name()":"06fdde03","setAllowance(address,address)":"1cedc203","symbol()":"95d89b41","totalSupply()":"18160ddd","transfer(address,uint256)":"a9059cbb","transferFrom(address,address,uint256)":"23b872dd"},"id":0}